:100000000C9434000C9449000C9449000C94490061
:100010000C9449000C9449000C9449000C9449003C
:100020000C9449000C9449000C9449000C9449002C
:100030000C9449000C9449000C9449000C9449001C
:100040000C9449000C9449000C9449000C9449000C
:100050000C9449000C9449000C9449000C944900FC
:100060000C9449000C94490011241FBECFEFD8E036
:10007000DEBFCDBF11E0A0E0B1E0E6E7F1E002C0F5
:1000800005900D92A23CB107D9F70E9457000C943D
:10009000B9000C9400004A9906C08FE79EE30197CF
:1000A000F1F700C0000088274A9B83950895CDB7DB
:1000B000DEB7C25CD1090FB6F894DEBF0FBECDBF6C
:1000C00082ECE0E0F1E08E010F5F1F4FD80101905C
:1000D0000D928A95E1F70E949400219A5A9A579AB4
:1000E000F12CE02EB12E6E0183ECC80ED11C0E94C3
:1000F0004B00A82E8115B1F0F11014C05F9A0E2D9F
:100100001B2D6CE271E0F801808191810E94A200B8
:100110000E944B00811105C00E5F1F4F0C151D057D
:1001200081F75F98FA2CE3CFE1E8F0E08081886006
:100130008083A0E8B0E08C9180648C9380818260A1
:10014000808308959C01CB01109285001092840059
:100150003093890020938800009719F4219A219800
:100160000895EFE9FFE03197F1F700C00000019733
:06017000F3CFF894FFCF6D
:10017600000000007C037C03320232027C0353023F
:1001860053029C029C0200000000000000000000D8
:10019600000000004A034A039C0232029C02BE0190
:1001A600BE01F501F50132023202F50132027C038D
:1001B6007C03320232027C03530253029C029C02ED
:1001C6004A034A03C4023202C402BE01BE01F5015B
:1001D600F50132023202F50132027C037C0332025F
:1001E60032027C03530253029C029C024A034A03D6
:1001F6009C0232029C02BE01BE01F501F5013202EB
:100206003202F501F5017C037C03320232027C03E3
:10021600530253029C029C024A034A03C40232025E
:10022600C402BE01BE01F501F50132023202F5013A
:02023600320292
:00000001FF
