:100000000C9434000C9449000C9449000C94490061
:100010000C9449000C9449000C9449000C9449003C
:100020000C9449000C9449000C9449000C9449002C
:100030000C9449000C9449000C9449000C9449001C
:100040000C9449000C9449000C9449000C9449000C
:100050000C9449000C9449000C9449000C944900FC
:100060000C9449000C94490011241FBECFEFD8E036
:10007000DEBFCDBF11E0A0E0B1E0E4E8F1E002C0F6
:1000800005900D92A23CB107D9F70E9457000C943D
:10009000C0000C9400004A9906C08FE79EE30197C8
:1000A000F1F700C0000088274A9B83950895CDB7DB
:1000B000DEB7C25CD1090FB6F894DEBF0FBECDBF6C
:1000C00082ECE0E0F1E08E010F5F1F4FD80101905C
:1000D0000D928A95E1F70E949500219A5A9A579AB3
:1000E000F12CE02EB12E6E0183ECC80ED11C0E94C3
:1000F0004B00A82E8115B9F0F11015C05F9A0E2D96
:100100001B2D6CE271E0F801808191810E94A300B7
:100110000E944B00811105C00E5F1F4F0C151D057D
:1001200081F721985F98FA2CE2CFE1E8F0E0808136
:1001300088608083A0E8B0E08C9180648C9380819B
:100140008260808308959C01CB014091840050918E
:1001500085002417350720F4109285001092840042
:100160003093890020938800299A009709F4089514
:10017000EFE9FFE03197F1F700C000000197F5CFFC
:04018000F894FFCF21
:100184007C037C03320232027C03530253029C023E
:100194009C029C029C029C024A034A039C02320277
:1001A4009C02BE01BE01F501F50132023202F501E5
:1001B400320232027C037C03320232027C03530299
:1001C40053029C029C029C029C029C024A034A0326
:1001D400C4023202C402BE01BE01BE01F501F50132
:1001E40032023202F501320232027C037C03320213
:1001F40032027C03530253029C029C024A034A03C8
:100204009C0232029C02BE01BE01F501F5013202DC
:100214003202F501F5017C037C03320232027C03D5
:10022400530253029C029C024A034A03C402320250
:10023400C402BE01BE01F501F50132023202F5012C
:02024400320284
:00000001FF
