:100000000C9434000C9449000C9449000C94490061
:100010000C9449000C9449000C9449000C9449003C
:100020000C9449000C9449000C9449000C9449002C
:100030000C9449000C9449000C9449000C9449001C
:100040000C9449000C9449000C9449000C9449000C
:100050000C9449000C9449000C9449000C944900FC
:100060000C9449000C94490011241FBECFEFD8E036
:10007000DEBFCDBF11E0A0E0B1E0E8E9F1E002C0F1
:1000800005900D92AE38B107D9F70E944B000C9441
:10009000CA000C940000CDB7DEB7C657D1090FB621
:1000A000F894DEBF0FBECDBF86E7E0E0F1E0DE01F1
:1000B000119601900D928A95E1F78CEF8AB9FE01B5
:1000C00031969E0129583F4FA191B1918C91853471
:1000D00009F448C098F4833469F18434B9F1823466
:1000E000E9F0E217F30781F780E090E0CA58DF4FAC
:1000F0000FB6F894DEBF0FBECDBF08958634F1F180
:10010000873479F75F9A4FEF85EA9EE0415080404F
:100110009040E1F700C000005F98E3CF5A9A4FEF9C
:1001200085EA9EE0415080409040E1F700C0000029
:100130005A98D7CF5B9A4FEF85EA9EE041508040B6
:100140009040E1F700C000005B98CBCF5C9A4FEF86
:1001500085EA9EE0415080409040E1F700C00000F9
:100160005C98BFCF5D9A4FEF85EA9EE0415080409A
:100170009040E1F700C000005D98B3CF5E9A4FEF6A
:1001800085EA9EE0415080409040E1F700C00000C9
:080190005E98A7CFF894FFCFA1
:100198007601760176017901790179017C017C018A
:1001A8007C017F017F017F01820185017C01820141
:1001B80082017C017F017F017F017F017F017F0137
:1001C8008801880188017601760176017901790133
:1001D80079017C017C017C01820185017C01880117
:1001E80088017901880188018801880188017901DD
:1001F8008B017901880176017601790188017C01FA
:100208007C017C017C0147350045350043350047BA
:0E0218003400413400423400443500463500C5
:00000001FF
