:100000000C9434000C9451000C9451000C94510049
:100010000C9451000C9451000C9451000C9451001C
:100020000C9451000C9451000C9451000C9451000C
:100030000C9451000C9451000C9453000C945100FA
:100040000C9451000C9451000C9451000C945100EC
:100050000C9451000C9451000C9451000C945100DC
:100060000C9451000C94510011241FBECFEFD8E026
:10007000DEBFCDBF12E0A0E0B1E0E8E6F2E002C0F2
:1000800005900D92A034B107D9F722E0A0E4B2E0C8
:1000900001C01D92A934B207E1F70E94EF000C9451
:1000A00032010C9400001F921FB61F9211248F93EF
:1000B0009F93AF93BF938091450290914602A09188
:1000C0004702B09148020196A11DB11D80934502DF
:1000D00090934602A0934702B0934802BF91AF911C
:1000E0009F918F911F901FBE1F9018954A9906C02F
:1000F0008FEF9CE70197F1F700C0000088274A9B2B
:1001000083950895CF93DF935F9A219AEC018881BC
:1001100099818F3F980749F022966CE271E00E9426
:100120001501809144028111F2CF21985F98DF91EF
:10013000CF91089580914402811128C00E947600D9
:10014000811521F18091450290914602A0914702CC
:10015000B09148028093400290934102A0934202E2
:10016000B093430281E0809344028091000190911A
:1001700001010E948200809144028150823028F463
:100180000E947600811110924402089580914402E9
:10019000813089F70E947600811569F380914502CC
:1001A00090914602A0914702B091480240914002CE
:1001B000509141026091420270914302841B950B61
:1001C000A60BB70B883C9105A105B105A0F682E00E
:1001D000809344028091020190910301CACF0E9452
:1001E000F700219A5A9A579A0E949A00FDCFE1E8A7
:1001F000F0E0808188608083A0E8B0E08C9180642A
:100200008C9380818260808384B5826084BD84B554
:10021000806484BD85B5856085BDEEE680818260A1
:10022000808316BC89EF87BD08959C01CB01409166
:100230008400509185002417350720F41092850022
:10024000109284003093890020938800299A0097A7
:1002500009F40895EFE9FFE03197F1F700C00000DD
:080260000197F5CFF894FFCFE0
:10026800C80104017C037C03320232027C0353027E
:1002780053029C029C029C029C029C024A034A0371
:100288009C0232029C02BE01BE01F501F501320258
:100298003202F501320232027C037C03320232025E
:1002A8007C03530253029C029C029C029C029C0207
:1002B8004A034A03C4023202C402BE01BE01BE019F
:1002C800F501F50132023202F501320232027C03F5
:1002D8007C03320232027C03530253029C029C02CA
:1002E8004A034A039C0232029C02BE01BE01F50188
:1002F800F50132023202F501F5017C037C0332027A
:1003080032027C03530253029C029C02A501A50100
:10031800C4023202C402BE01BE01F501F501320277
:100328003202F5013202FFFFFA00FA00FA002A0150
:100338002A012A01770177017701F501F501F50115
:10034800BE018D017701BE01BE017701F501F501FE
:10035800F501F501F501F5014E014E014E01FA00D6
:10036800FA00FA002A012A012A01770177017701A8
:10037800BE018D0177014E014E012A014E014E0149
:100388004E014E014E012A0119012A014E01FA00BF
:10039800FA002A014E017701770177017701FFFF03
:00000001FF
