:100000000C9434000C9451000C9451000C94510049
:100010000C9451000C9451000C9451000C9451001C
:100020000C9451000C9451000C9451000C9451000C
:100030000C9451000C9451000C9453000C945100FA
:100040000C9451000C9451000C9451000C945100EC
:100050000C9451000C9451000C9451000C945100DC
:100060000C9451000C94510011241FBECFEFD8E026
:10007000DEBFCDBF12E0A0E0B1E0E6E8F2E002C0F2
:1000800005900D92A234B107D9F722E0A2E4B2E0C4
:1000900001C01D92AB34B207E1F70E94FD000C9441
:1000A00041010C9400001F921FB61F9211248F93E0
:1000B0009F93AF93BF938091470290914802A09184
:1000C0004902B0914A020196A11DB11D80934702D9
:1000D00090934802A0934902B0934A02BF91AF9116
:1000E0009F918F911F901FBE1F90189599B194708A
:1000F00080910001813079F4911511F080E008952C
:10010000EFEFFCE73197F1F700C000004A99F6CF16
:1001100010920001089590F7911581F38FEF9CE7FD
:100120000197F1F700C000004A9BE8CF81E080937F
:100130000001E4CFCF93DF935F9A219AEC0188818D
:1001400099818F3F980749F022966CE271E00E94F6
:1001500024010E947600811591F321985F98DF9128
:10016000CF9108950E9476008115B9F080914602E2
:100170008130C8F58091470290914802A0914902D0
:10018000B0914A028093420290934302A0934402AA
:10019000B093450281E0809346028091470290919E
:1001A0004802A0914902B0914A0240914202509106
:1001B00043026091440270914502841B950BA60B8B
:1001C000B70B813D9740A105B10560F080914602D3
:1001D000813061F480910101909102010E949A00A6
:1001E000109246020895C9F682E0D5CF8230D1F749
:1001F0008091030190910401F1CF0E940601219AA0
:100200005A9A579A78940E94B200FDCFE1E8F0E044
:10021000808188608083A0E8B0E08C9180648C93BA
:1002200080818260808384B5826084BD84B580646F
:1002300084BD85B5836085BDEEE680818260808364
:1002400016BC89EF87BD08959C01CB0140918400C5
:10025000509185002417350720F4109285001092E4
:1002600084003093890020938800299A009709F42C
:100270000895EFE9FFE03197F1F700C00000019722
:06028000F5CFF894FFCF5A
:1002860001C90105017C037C03320232027C03535F
:100296000253029C029C029C029C029C024A034A54
:1002A600039C0232029C02BE01BE01F501F5013239
:1002B600023202F501320232027C037C0332023240
:1002C600027C03530253029C029C029C029C029CE9
:1002D600024A034A03C4023202C402BE01BE01BE80
:1002E60001F501F50132023202F501320232027CD9
:1002F600037C03320232027C03530253029C029CAB
:10030600024A034A039C0232029C02BE01BE01F568
:1003160001F50132023202F501F5017C037C03325C
:100326000232027C03530253029C029C02A501A5E1
:1003360001C4023202C402BE01BE01F501F501325A
:10034600023202F5013202FFFFFA00FA00FA002A31
:10035600012A012A01770177017701F501F501F5F7
:1003660001BE018D017701BE01BE017701F501F5E0
:1003760001F501F501F501F5014E014E014E01FAB7
:1003860000FA00FA002A012A012A0177017701778B
:1003960001BE018D0177014E014E012A014E014E2B
:1003A600014E014E014E012A0119012A014E01FAA0
:1003B60000FA002A014E017701770177017701FFE4
:0203C600FF0036
:00000001FF
