:100000000C9434000C9449000C9449000C94490061
:100010000C9449000C9449000C9449000C9449003C
:100020000C9449000C9449000C9449000C9449002C
:100030000C9449000C9449000C9449000C9449001C
:100040000C9449000C9449000C9449000C9449000C
:100050000C9449000C9449000C9449000C944900FC
:100060000C9449000C94490011241FBECFEFD8E036
:10007000DEBFCDBF11E0A0E0B1E0E8E4F1E002C0F6
:1000800005900D92A235B107D9F70E944B000C9450
:10009000A2000C940000CDB7DEB7C255D1090FB64F
:1000A000F894DEBF0FBECDBF22E5E0E0F1E0CE0167
:1000B0000196DC0101900D922A95E1F7569A5A9A21
:1000C000F12CE82EB92E6E0187EAC80ED11C4A9990
:1000D00014C0F110FCCF0E2D1B2DFF24F39440EA29
:1000E00056E861E070E0F801819191918F010E94E2
:1000F0007F000C151D0599F7EACFF12CE8CFCF93BF
:10010000DF93FC01A0E0B0E0CD01C0E484179507C7
:10011000A607B707A0F0DF91CF910895D5E0DA9553
:10012000F1F700002F5F3F4F2E173F07B9F72BB1B4
:100130002C272BB98E0F9F1FA11DB11DE7CF20E0EB
:0801400030E0F2CFF894FFCF8C
:10014800940094009400BB0094007D00FA00BB006A
:10015800FA002A01DF00C700D200DF00FA0094008D
:100168007D006F008C007D009400BB00A700C700D5
:10017800BB00FA002A01DF00C700D200DF00FA0046
:1001880094007D006F008C007D009400BB00A700E8
:02019800C7009E
:00000001FF
