:100000000C9434000C9449000C9449000C94490061
:100010000C9449000C9449000C9449000C9449003C
:100020000C9449000C9449000C9449000C9449002C
:100030000C9449000C9449000C9449000C9449001C
:100040000C9449000C9449000C9449000C9449000C
:100050000C9449000C9449000C9449000C944900FC
:100060000C9449000C94490011241FBECFEFD8E036
:10007000DEBFCDBF11E0A0E0B1E0E2E5F1E002C0FB
:1000800005900D92A637B107D9F70E944B000C944A
:10009000A7000C940000CDB7DEB7C657D1090FB644
:1000A000F894DEBF0FBECDBF86E7E0E0F1E08E0141
:1000B0000F5F1F4FD80101900D928A95E1F70E94C2
:1000C0008200219A5A9A579A80E0D02EC12E7E0142
:1000D00097E7E90EF11C4A9913C08111FCCF5F9A92
:1000E0000D2D1C2D6CE271E0F801819191918F0131
:1000F0000E9490000E151F05A9F75F9881E0EBCFD5
:1001000080E0E9CFE1E8F0E0808188608083A0E8CA
:10011000B0E08C9180648C938081826080830895AC
:100120009C01CB01109285001092840030938900CD
:1001300020938800219A009711F421980895EFE9FF
:10014000FFE03197F1F700C000000197F4CFF89479
:02015000FFCFDF
:10015200FA00FA00FA002A012A012A01770177013E
:100162007701F501F501F501BE018D017701BE01AF
:10017200BE017701F501F501F501F501F501F50182
:100182004E014E014E01FA00FA00FA002A012A013C
:100192002A01770177017701BE018D0177014E01B6
:1001A2004E012A014E014E014E014E014E012A011D
:1001B20019012A014E01FA00FA002A014E017701C3
:0601C200770177017701CF
:00000001FF
