:100000000C9434000C9449000C9449000C94490061
:100010000C9449000C9449000C9449000C9449003C
:100020000C9449000C9449000C9449000C9449002C
:100030000C9449000C9449000C9449000C9449001C
:100040000C9449000C9449000C9449000C9449000C
:100050000C9449000C9449000C9449000C944900FC
:100060000C9449000C94490011241FBECFEFD8E036
:10007000DEBFCDBF12E0A0E0B1E0ECEBF1E002C0EA
:1000800005900D92AC33B107D9F70E9457000C943C
:10009000DC000C9400004A9906C08FEF9CE70197A2
:1000A000F1F700C0000088274A9B83950895CDB7DB
:1000B000DEB7CC53D1400FB6F894DEBF0FBECDBF34
:1000C0007E0125ECE20EF11C88E7E0E0F1E0D701CB
:1000D00001900D928A95E1F784ECE8E7F1E08E015A
:1000E0000F5F1F4FD80101900D928A95E1F70E9492
:1000F000B100219A5A9A579AB12CD02EC12E1B2D9D
:10010000B12E1B2D0E944B00B82E8115D1F38FEF1D
:1001100093ECE9E081509040E040E1F700C000003E
:100120000E944B008115D9F09E2D8F2D1111E8CF23
:100130005F9A219A092F182FF801808191818F3FB2
:10014000980751F00E5F1F4F6CE271E00E94BF00F4
:100150000E944B00811581F321985F98D0CFC60192
:10016000E5CFE1E8F0E0808188608083A0E8B0E03E
:100170008C9180648C9380818260808308959C013F
:10018000CB0140918400509185002417350720F45D
:10019000109285001092840030938900209388008B
:1001A000299A009709F40895EFE9FFE03197F1F7F4
:0C01B00000C000000197F5CFF894FFCFCD
:1001BC00FA00FA00FA002A012A012A0177017701D4
:1001CC007701F501F501F501BE018D017701BE0145
:1001DC00BE017701F501F501F501F501F501F50118
:1001EC004E014E014E01FA00FA00FA002A012A01D2
:1001FC002A01770177017701BE018D0177014E014C
:10020C004E012A014E014E014E014E014E012A01B2
:10021C0019012A014E01FA00FA002A014E01770158
:10022C00770177017701FFFF7C037C0332023202F6
:10023C007C03530253029C029C029C029C029C0273
:10024C004A034A039C0232029C02BE01BE01F50124
:10025C00F50132023202F501320232027C037C03D8
:10026C00320232027C03530253029C029C029C0217
:10027C009C029C024A034A03C4023202C402BE011D
:10028C00BE01BE01F501F50132023202F501320266
:10029C0032027C037C03320232027C03530253028F
:1002AC009C029C024A034A039C0232029C02BE013D
:1002BC00BE01F501F50132023202F501F5017C03B4
:1002CC007C03320232027C03530253029C029C02D6
:1002DC00A501A501C4023202C402BE01BE01F50192
:0C02EC00F50132023202F5013202FFFF80
:00000001FF
