:100000000C9434000C9451000C9451000C94510049
:100010000C9451000C9451000C9451000C9451001C
:100020000C9451000C9451000C9451000C9451000C
:100030000C9451000C9451000C9453000C945100FA
:100040000C9451000C9451000C9451000C945100EC
:100050000C9451000C9451000C9451000C945100DC
:100060000C9451000C94510011241FBECFEFD8E026
:10007000DEBFCDBF12E0A0E0B1E0E8E9F2E002C0EF
:1000800005900D92AC34B107D9F722E0ACE4B2E0B0
:1000900001C01D92A535B207E1F70E9402010C9440
:1000A0004A010C9400001F921FB61F9211248F93D7
:1000B0009F93AF93BF938091510290915202A09170
:1000C0005302B09154020196A11DB11D80935102BB
:1000D00090935202A0935302B0935402BF91AF91F8
:1000E0009F918F911F901FBE1F90189589B18470AA
:1000F00090910001913071F481110DC0EFEFFCE798
:100100003197F1F700C000004A9918C01092000121
:10011000892F089510F080E00895803079F0EFEF96
:10012000FCE73197F1F700C0000029B1822F8470FD
:1001300022FF04C081E080930001EACF0895CF93AD
:10014000DF932C9A219AEC01888199818F3F98073F
:1001500049F022966CE271E00E942D010E94760027
:10016000803091F321982C98DF91CF9108950E94CF
:1001700076008030B9F0809150028130C8F58091CE
:10018000510290915202A0915302B0915402809377
:100190004C0290934D02A0934E02B0934F0281E027
:1001A000809350028091510290915202A09153028B
:1001B000B091540240914C0250914D0260914E0218
:1001C00070914F02841B950BA60BB70B893592409B
:1001D000A040B04060F080915002813061F4809185
:1001E0000101909102010E949F0010925002089517
:1001F000C9F682E0D5CF8230D1F78091030190918A
:100200000401F1CF0E940F01219A5A9A249A7894FE
:1002100081E492E00E949F000E94B700FDCFE1E8D8
:10022000F0E0808188608083A0E8B0E08C918064F9
:100230008C9380818260808384B5826084BD84B524
:10024000806484BD85B5836085BDEEE68081826073
:10025000808316BC89EF87BD08959C01CB01409136
:100260008400509185002417350720F410928500F2
:10027000109284003093890020938800299A009777
:1002800009F40895EFE9FFE03197F1F700C00000AD
:080290000197F5CFF894FFCFB0
:1002980001C90105017C037C03320232027C03534D
:1002A8000253029C029C029C029C029C024A034A42
:1002B800039C0232029C02BE01BE01F501F5013227
:1002C800023202F501320232027C037C033202322E
:1002D800027C03530253029C029C029C029C029CD7
:1002E800024A034A03C4023202C402BE01BE01BE6E
:1002F80001F501F50132023202F501320232027CC7
:10030800037C03320232027C03530253029C029C98
:10031800024A034A039C0232029C02BE01BE01F556
:1003280001F50132023202F501F5017C037C03324A
:100338000232027C03530253029C029C02A501A5CF
:1003480001C4023202C402BE01BE01F501F5013248
:10035800023202F5013202FFFFFA00FA00FA002A1F
:10036800012A012A01770177017701F501F501F5E5
:1003780001BE018D017701BE01BE017701F501F5CE
:1003880001F501F501F501F5014E014E014E01FAA5
:1003980000FA00FA002A012A012A01770177017779
:1003A80001BE018D0177014E014E012A014E014E19
:1003B800014E014E014E012A0119012A014E01FA8E
:1003C80000FA002A014E017701770177017701FFD2
:0C03D800FF9C023202BE01BE01FFFF00CC
:00000001FF
