:100000000C9434000C9451000C9451000C94510049
:100010000C9451000C9451000C9451000C9451001C
:100020000C9451000C9451000C9451000C9451000C
:100030000C9451000C9451000C9453000C945100FA
:100040000C9451000C9451000C9451000C945100EC
:100050000C9451000C9451000C9451000C945100DC
:100060000C9451000C94510011241FBECFEFD8E026
:10007000DEBFCDBF12E0A0E0B1E0E4EFF2E002C0ED
:1000800005900D92AC34B107D9F722E0ACE4B2E0B0
:1000900001C01D92A535B207E1F70E942A010C9418
:1000A00078010C9400001F921FB61F9211248F93A9
:1000B0009F93AF93BF938091510290915202A09170
:1000C0005302B09154020196A11DB11D80935102BB
:1000D00090935202A0935302B0935402BF91AF91F8
:1000E0009F918F911F901FBE1F90189599B180917D
:1000F0000001813079F497FD08C0EFEFFCE73197FC
:10010000F1F700C000004F9B02C080E008951092FC
:1001100000010895D0F797FF0BC0EFEFFCE7319790
:10012000F1F700C000004F9B03C091E090930001E5
:100130000895CF93DF932C9A219AEC0188819981BD
:100140008F3F980779F022966CE271E00E945B0184
:100150000E947600803091F36CE271E083E592E0DA
:100160000E945B0121982C98DF91CF9108950E9405
:1001700076008030B9F0809150028130C8F58091CE
:10018000510290915202A0915302B0915402809377
:100190004C0290934D02A0934E02B0934F0281E027
:1001A000809350028091510290915202A09153028B
:1001B000B091540240914C0250914D0260914E0218
:1001C00070914F02841B950BA60BB70B893592409B
:1001D000A040B04060F080915002813061F4809185
:1001E0000101909102010E9499001092500208951D
:1001F000C9F682E0D5CF8230D1F78091030190918A
:100200000401F1CF4A9B0CC04B9B0DC04C9B0EC010
:100210004D9B0FC04E9B10C089B180E090E00895C7
:100220008EEE92E008958CE992E0089583E592E0E5
:10023000089582E392E0089585EF91E00895009794
:1002400041F02C9A219A62E370E00E945B012198B0
:100250002C9808950E943D01219A8BB18C6F8BB927
:10026000249A789481E492E00E9499000E94B70059
:100270000E9402010E941F01F9CFE1E8F0E08081B5
:1002800088608083A0E8B0E08C9180648C9380814A
:100290008260808384B5826084BD84B5806484BDBF
:1002A00085B5836085BDEEE680818260808316BC63
:1002B00089EF87BD08959C01CB0140918400509146
:1002C00085002417350720F41092850010928400D1
:1002D0003093890020938800299A009709F40895A3
:1002E000EFE9FFE03197F1F700C000000197F5CF8B
:0402F000F894FFCFB0
:1002F40001C90105017C037C03320232027C0353F1
:100304000253029C029C029C029C029C024A034AE5
:10031400039C0232029C02BE01BE01F501F50132CA
:10032400023202F501320232027C037C03320232D1
:10033400027C03530253029C029C029C029C029C7A
:10034400024A034A03C4023202C402BE01BE01BE11
:1003540001F501F50132023202F501320232027C6A
:10036400037C03320232027C03530253029C029C3C
:10037400024A034A039C0232029C02BE01BE01F5FA
:1003840001F50132023202F501F5017C037C0332EE
:100394000232027C03530253029C029C02A501A573
:1003A40001C4023202C402BE01BE01F501F50132EC
:1003B400023202F5013202FFFFF501F501F50153A6
:1003C4000253025302EE02EE02EE02E903E903E9EC
:1003D400037C031B03EE027C037C03EE02E903E9C6
:1003E40003E903E903E903E9039C029C029C02F587
:1003F40001F501F501530253025302EE02EE02EE3F
:10040400027C031B03EE029C029C0253029C029C8E
:10041400029C029C029C025302320253029C02F58B
:1004240001F50153029C02EE02EE02EE02EE02FF1F
:0C043400FF9C023202BE01BE01FFFF006F
:00000001FF
