:100000000C9434000C943E000C943E000C943E0082
:100010000C943E000C943E000C943E000C943E0068
:100020000C943E000C943E000C943E000C943E0058
:100030000C943E000C943E000C943E000C943E0048
:100040000C943E000C943E000C943E000C943E0038
:100050000C943E000C943E000C943E000C943E0028
:100060000C943E000C943E0011241FBECFEFD8E04C
:10007000DEBFCDBF0E9440000C947E000C940000B7
:10008000259A20E28DEF9FEF25B98330910508F185
:100090003FEF41EF5BE2315040405040E1F700C09C
:1000A000000015B83FEF41EF5BE231504040504057
:1000B000E1F700C0000001968630910529F78FEF27
:1000C00097EA31E6815090403040E1F700C00000EF
:1000D000D9CF3FEF45EA5EE0315040405040E1F774
:1000E00000C0000015B83FEF45EA5EE031504040E7
:1000F0005040E1F700C000000196C6CFF894FFCF52
:00000001FF
