:100000000C9434000C943E000C943E000C943E0082
:100010000C943E000C943E000C943E000C943E0068
:100020000C943E000C943E000C943E000C943E0058
:100030000C943E000C943E000C943E000C943E0048
:100040000C943E000C943E000C943E000C943E0038
:100050000C943E000C943E000C943E000C943E0028
:100060000C943E000C943E0011241FBECFEFD8E04C
:10007000DEBFCDBF0E9440000C9485000C940000B0
:100080008AB18C6F8AB98DEF9FEF2BB12C6F2BB992
:100090008330910518F12FEF35EA4EE021503040C2
:1000A0004040E1F700C000002BB123702BB92FEFC7
:1000B00035EA4EE0215030404040E1F700C00000FA
:1000C00001968630910509F78FEF97EA21E6815076
:1000D00090402040E1F700C00000D5CF2FEF31EF76
:1000E0004BE2215030404040E1F700C000002BB10E
:1000F00023702BB92FEF35EA4EE0215030404040BD
:0E010000E1F700C000000196C0CFF894FFCFD9
:00000001FF
