:100000000C9434000C943E000C943E000C943E0082
:100010000C943E000C943E000C943E000C943E0068
:100020000C943E000C943E000C943E000C943E0058
:100030000C943E000C943E000C943E000C943E0048
:100040000C943E000C943E000C943E000C943E0038
:100050000C943E000C943E000C943E000C943E0028
:100060000C943E000C943E0011241FBECFEFD8E04C
:10007000DEBFCDBF0E9440000C9480000C940000B5
:100080008AB18C6F8AB92CEF8DEF9FEF2BB983303B
:10009000910508F13FEF45EA5EE0315040405040A5
:1000A000E1F700C000001BB83FEF45EA5EE03150C9
:1000B00040405040E1F700C00000019686309105B5
:1000C00029F78FEF97EA31E6815090403040E1F711
:1000D00000C00000D9CF3FEF41EF5BE2315040401C
:1000E0005040E1F700C000001BB83FEF45EA5EE07A
:1000F000315040405040E1F700C000000196C6CFAB
:04010000F894FFCFA1
:00000001FF
