:100000000C9434000C9449000C9449000C94490061
:100010000C9449000C9449000C9449000C9449003C
:100020000C9449000C9449000C9449000C9449002C
:100030000C9449000C9449000C9449000C9449001C
:100040000C9449000C9449000C9449000C9449000C
:100050000C9449000C9449000C9449000C944900FC
:100060000C9449000C94490011241FBECFEFD8E036
:10007000DEBFCDBF11E0A0E0B1E0E4EFF1E002C0EF
:1000800005900D92A435B107D9F70E946E000C942B
:10009000F8000C940000FC0120E030E080E426171A
:1000A000370780F0089595E09A95F1F700004F5FCB
:1000B0005F4F4E175F07B9F79BB198279BB92E0F7B
:1000C0003F1FEDCF40E050E0F4CF9C0185E08A95E2
:1000D000F1F7000021503040C9F70895CDB7DEB7E1
:1000E000E7970FB6F894DEBF0FBECDBF569A0E94B9
:1000F000BC0084E291E00E94DB0082E1E0E4F1E0F8
:10010000DE01959601900D928A95E1F784E2E0E098
:10011000F1E0DE01119601900D928A95E1F700E081
:1001200018E70E94D4008FAB8EE40E94CD00FE0140
:10013000B59680E090E020813FA923130FC0880F7F
:10014000991FFE013196E80FF91FB8018081918156
:100150000E944B00E6CF00E010EFE3CF319601960E
:100160008231910541F78FA98B35C9F28D3599F30D
:10017000C8010E946500D5CF1092C50080E1809330
:10018000C400E0ECF0E080818260808388E18093AD
:10019000C10086E08093C20008959091C00095FF51
:1001A000FCCF8093C60008958091C00087FFFCCFEC
:1001B0008091C6000895CF93DF9300D00F92CDB702
:1001C000DEB789839A831B82E981FA818B81E80FEC
:1001D000F11D8081811106C00F900F900F90DF916B
:1001E000CF9108950E94CD008B818F5F8B83ECCFE0
:0401F000F894FFCFB1
:1001F4001304D803A1036D033B030D03E102B8020A
:1002040091026C02490228020902EC01D001B601F4
:100214009E0186012D2D2D2D2D2053657269616C53
:10022400204F7267616E202D2D2D2D2D2D0D0A006E
:10023400617773656466746779686A696B6F6C70FB
:040244003B27000054
:00000001FF
