:100000000C9434000C943E000C943E000C943E0082
:100010000C943E000C943E000C943E000C943E0068
:100020000C943E000C943E000C943E000C943E0058
:100030000C943E000C943E000C943E000C943E0048
:100040000C943E000C943E000C943E000C943E0038
:100050000C943E000C943E000C943E000C943E0028
:100060000C943E000C943E0011241FBECFEFD8E04C
:10007000DEBFCDBF0E9468000C94B8000C94000055
:100080004A9B0CC04B9B0DC04C9B0EC04D9B0FC0A0
:100090004E9B10C089B180E090E008958EEE92E012
:1000A00008958CE992E0089583E592E0089582E353
:1000B00092E0089585EF91E00895009741F02C9A21
:1000C000219A62E370E00E949B0021982C98089589
:1000D0000E948D008BB18C6F8BB9219A6CE271E01C
:1000E0008CE992E00E949B006CE271E082E392E076
:1000F0000E949B006CE271E08EEB91E00E949B00FD
:100100006CE271E08EEB91E00E949B002198249AB2
:100110000E9440000E945D00FBCFE1E8F0E080819A
:1001200088608083A0E8B0E08C9180648C938081AB
:100130008260808308959C01CB014091840050919E
:1001400085002417350720F4109285001092840052
:100150003093890020938800299A009709F4089524
:10016000EFE9FFE03197F1F700C000000197F5CF0C
:04017000F894FFCF31
:00000001FF
