:100000000C9434000C943E000C943E000C943E0082
:100010000C943E000C943E000C943E000C943E0068
:100020000C943E000C943E000C943E000C943E0058
:100030000C943E000C943E000C943E000C943E0048
:100040000C943E000C943E000C943E000C943E0038
:100050000C943E000C943E000C943E000C943E0028
:100060000C943E000C943E0011241FBECFEFD8E04C
:10007000DEBFCDBF0E9468000C94BA000C94000053
:100080004A9B0CC04B9B0DC04C9B0EC04D9B0FC0A0
:100090004E9B10C089B180E090E008958EEE92E012
:1000A00008958CE992E0089583E592E0089582E353
:1000B00092E0089585EF91E00895009741F02C9A21
:1000C000219A62E370E00E949D0021982C98089587
:1000D0000E948F008BB18C6F8BB9249A219A2C9A35
:1000E0006CE271E08CE992E00E949D006CE271E0AC
:1000F00082E392E00E949D006CE271E08EEB91E061
:100100000E949D006CE271E08EEB91E00E949D00E8
:10011000219821980E9440000E945D00FBCFE1E8F9
:10012000F0E0808188608083A0E8B0E08C918064FA
:100130008C9380818260808308959C01CB014091E3
:100140008400509185002417350720F41092850013
:10015000109284003093890020938800299A009798
:1001600009F40895EFE9FFE03197F1F700C00000CE
:080170000197F5CFF894FFCFD1
:00000001FF
