:100000000C9434000C943E000C943E000C943E0082
:100010000C943E000C943E000C943E000C943E0068
:100020000C943E000C943E000C943E000C943E0058
:100030000C943E000C943E000C943E000C943E0048
:100040000C943E000C943E000C943E000C943E0038
:100050000C943E000C943E000C943E000C943E0028
:100060000C943E000C943E0011241FBECFEFD8E04C
:10007000DEBFCDBF0E9469000C94B9000C94000053
:100080004A9B0AC04B9B0BC04C9B0CC04D9B0DC0A8
:100090004E9B0EC04F9B0FC080E090E008958EEE07
:1000A00092E008958CE992E0089583E592E0089546
:1000B00082E392E0089585EF91E00895009741F082
:1000C0002C9A219A6CE271E00E949C0021982C9855
:1000D00008950E948E008BB18C6F8BB9219A6CE2CF
:1000E00071E08CE992E00E949C006CE271E082E396
:1000F00092E00E949C006CE271E08EEB91E00E9425
:100100009C006CE271E08EEB91E00E949C002198D3
:10011000249A0E9440000E945E00FBCFE1E8F0E0DC
:10012000808188608083A0E8B0E08C9180648C93AB
:1001300080818260808308959C01CB01409184007E
:10014000509185002417350720F4109285001092F5
:1001500084003093890020938800299A009709F43D
:100160000895EFE9FFE03197F1F700C00000019733
:06017000F5CFF894FFCF6B
:00000001FF
