:100000000C9434000C943E000C943E000C943E0082
:100010000C943E000C943E000C943E000C943E0068
:100020000C943E000C943E000C943E000C943E0058
:100030000C943E000C943E000C943E000C943E0048
:100040000C943E000C943E000C943E000C943E0038
:100050000C943E000C943E000C943E000C943E0028
:100060000C943E000C943E0011241FBECFEFD8E04C
:10007000DEBFCDBF0E946E000C94A5000C94000062
:100080004A9B0AC04B9B0BC04C9B0CC04D9B0DC0A8
:100090004E9B0EC04F9B0FC080E090E008958EEE07
:1000A00092E008958CE992E0089583E592E0089546
:1000B00082E392E0089585EF91E00895CF93DF9376
:1000C000EC01892B41F05F9A219A6CE271E0CE013C
:1000D0000E948800FACFDF91CF9108950E947A00A4
:1000E000219A5A9A579A0E9440000E9440000E940A
:1000F0005E00F9CFE1E8F0E0808188608083A0E8CD
:10010000B0E08C9180648C938081826080830895BC
:100110009C01CB0140918400509185002417350744
:1001200020F410928500109284003093890020936F
:100130008800299A009709F40895EFE9FFE03197C4
:0E014000F1F700C000000197F5CFF894FFCF53
:00000001FF
